{
  "abi": [
    {
      "inputs": [
        {
          "internalType": "address",
          "name": "_registry",
          "type": "address"
        },
        {
          "internalType": "address",
          "name": "_token",
          "type": "address"
        }
      ],
      "stateMutability": "nonpayable",
      "type": "constructor"
    },
    {
      "anonymous": false,
      "inputs": [
        {
          "indexed": false,
          "internalType": "uint32",
          "name": "_paraId",
          "type": "uint32"
        },
        {
          "indexed": false,
          "internalType": "address",
          "name": "_staker",
          "type": "address"
        },
        {
          "indexed": false,
          "internalType": "bytes",
          "name": "_account",
          "type": "bytes"
        },
        {
          "indexed": false,
          "internalType": "uint256",
          "name": "_amount",
          "type": "uint256"
        }
      ],
      "name": "NewParachainStaker",
      "type": "event"
    },
    {
      "anonymous": false,
      "inputs": [
        {
          "indexed": true,
          "internalType": "address",
          "name": "_staker",
          "type": "address"
        },
        {
          "indexed": true,
          "internalType": "uint256",
          "name": "_amount",
          "type": "uint256"
        }
      ],
      "name": "NewStaker",
      "type": "event"
    },
    {
      "anonymous": false,
      "inputs": [
        {
          "indexed": false,
          "internalType": "uint32",
          "name": "_paraId",
          "type": "uint32"
        },
        {
          "indexed": false,
          "internalType": "address",
          "name": "_reporter",
          "type": "address"
        },
        {
          "indexed": false,
          "internalType": "address",
          "name": "_recipient",
          "type": "address"
        },
        {
          "indexed": false,
          "internalType": "uint256",
          "name": "_slashAmount",
          "type": "uint256"
        }
      ],
      "name": "ParachainReporterSlashed",
      "type": "event"
    },
    {
      "anonymous": false,
      "inputs": [
        {
          "indexed": false,
          "internalType": "uint32",
          "name": "_paraId",
          "type": "uint32"
        },
        {
          "indexed": false,
          "internalType": "address",
          "name": "_staker",
          "type": "address"
        },
        {
          "indexed": false,
          "internalType": "uint256",
          "name": "_amount",
          "type": "uint256"
        }
      ],
      "name": "ParachainStakeWithdrawRequestConfirmed",
      "type": "event"
    },
    {
      "anonymous": false,
      "inputs": [
        {
          "indexed": false,
          "internalType": "uint32",
          "name": "_paraId",
          "type": "uint32"
        },
        {
          "indexed": false,
          "internalType": "bytes",
          "name": "_account",
          "type": "bytes"
        },
        {
          "indexed": false,
          "internalType": "uint256",
          "name": "_amount",
          "type": "uint256"
        }
      ],
      "name": "ParachainStakeWithdrawRequested",
      "type": "event"
    },
    {
      "anonymous": false,
      "inputs": [
        {
          "indexed": false,
          "internalType": "uint32",
          "name": "_paraId",
          "type": "uint32"
        },
        {
          "indexed": false,
          "internalType": "address",
          "name": "_staker",
          "type": "address"
        }
      ],
      "name": "ParachainStakeWithdrawn",
      "type": "event"
    },
    {
      "anonymous": false,
      "inputs": [
        {
          "indexed": true,
          "internalType": "address",
          "name": "_reporter",
          "type": "address"
        },
        {
          "indexed": false,
          "internalType": "address",
          "name": "_recipient",
          "type": "address"
        },
        {
          "indexed": false,
          "internalType": "uint256",
          "name": "_slashAmount",
          "type": "uint256"
        }
      ],
      "name": "ReporterSlashed",
      "type": "event"
    },
    {
      "anonymous": false,
      "inputs": [
        {
          "indexed": false,
          "internalType": "address",
          "name": "_staker",
          "type": "address"
        },
        {
          "indexed": false,
          "internalType": "uint256",
          "name": "_amount",
          "type": "uint256"
        }
      ],
      "name": "StakeWithdrawRequested",
      "type": "event"
    },
    {
      "anonymous": false,
      "inputs": [
        {
          "indexed": false,
          "internalType": "address",
          "name": "_staker",
          "type": "address"
        }
      ],
      "name": "StakeWithdrawn",
      "type": "event"
    },
    {
      "inputs": [
        {
          "internalType": "uint32",
          "name": "_paraId",
          "type": "uint32"
        },
        {
          "internalType": "bytes",
          "name": "_account",
          "type": "bytes"
        },
        {
          "internalType": "uint256",
          "name": "_amount",
          "type": "uint256"
        }
      ],
      "name": "depositParachainStake",
      "outputs": [],
      "stateMutability": "nonpayable",
      "type": "function"
    },
    {
      "inputs": [],
      "name": "getGovernanceAddress",
      "outputs": [
        {
          "internalType": "address",
          "name": "",
          "type": "address"
        }
      ],
      "stateMutability": "view",
      "type": "function"
    },
    {
      "inputs": [],
      "name": "getOwner",
      "outputs": [
        {
          "internalType": "address",
          "name": "",
          "type": "address"
        }
      ],
      "stateMutability": "view",
      "type": "function"
    },
    {
      "inputs": [
        {
          "internalType": "uint32",
          "name": "_paraId",
          "type": "uint32"
        },
        {
          "internalType": "address",
          "name": "_stakerAddress",
          "type": "address"
        }
      ],
      "name": "getParachainStakerDetails",
      "outputs": [
        {
          "internalType": "bytes",
          "name": "",
          "type": "bytes"
        }
      ],
      "stateMutability": "view",
      "type": "function"
    },
    {
      "inputs": [
        {
          "internalType": "uint32",
          "name": "_paraId",
          "type": "uint32"
        },
        {
          "internalType": "address",
          "name": "_stakerAddress",
          "type": "address"
        }
      ],
      "name": "getParachainStakerInfo",
      "outputs": [
        {
          "internalType": "uint256",
          "name": "",
          "type": "uint256"
        },
        {
          "internalType": "uint256",
          "name": "",
          "type": "uint256"
        },
        {
          "internalType": "uint256",
          "name": "",
          "type": "uint256"
        }
      ],
      "stateMutability": "view",
      "type": "function"
    },
    {
      "inputs": [],
      "name": "getTokenAddress",
      "outputs": [
        {
          "internalType": "address",
          "name": "",
          "type": "address"
        }
      ],
      "stateMutability": "view",
      "type": "function"
    },
    {
      "inputs": [],
      "name": "governance",
      "outputs": [
        {
          "internalType": "address",
          "name": "",
          "type": "address"
        }
      ],
      "stateMutability": "view",
      "type": "function"
    },
    {
      "inputs": [
        {
          "internalType": "address",
          "name": "_governanceAddress",
          "type": "address"
        }
      ],
      "name": "init",
      "outputs": [],
      "stateMutability": "nonpayable",
      "type": "function"
    },
    {
      "inputs": [],
      "name": "owner",
      "outputs": [
        {
          "internalType": "address",
          "name": "",
          "type": "address"
        }
      ],
      "stateMutability": "view",
      "type": "function"
    },
    {
      "inputs": [],
      "name": "registryAddress",
      "outputs": [
        {
          "internalType": "address",
          "name": "",
          "type": "address"
        }
      ],
      "stateMutability": "view",
      "type": "function"
    },
    {
      "inputs": [
        {
          "internalType": "uint32",
          "name": "_paraId",
          "type": "uint32"
        },
        {
          "internalType": "uint256",
          "name": "_amount",
          "type": "uint256"
        }
      ],
      "name": "requestParachainStakeWithdraw",
      "outputs": [],
      "stateMutability": "nonpayable",
      "type": "function"
    },
    {
      "inputs": [
        {
          "internalType": "uint256",
          "name": "_slashAmount",
          "type": "uint256"
        },
        {
          "internalType": "uint32",
          "name": "_paraId",
          "type": "uint32"
        },
        {
          "internalType": "address",
          "name": "_reporter",
          "type": "address"
        },
        {
          "internalType": "address",
          "name": "_recipient",
          "type": "address"
        }
      ],
      "name": "slashParachainReporter",
      "outputs": [
        {
          "internalType": "uint256",
          "name": "",
          "type": "uint256"
        }
      ],
      "stateMutability": "nonpayable",
      "type": "function"
    },
    {
      "inputs": [],
      "name": "toWithdraw",
      "outputs": [
        {
          "internalType": "uint256",
          "name": "",
          "type": "uint256"
        }
      ],
      "stateMutability": "view",
      "type": "function"
    },
    {
      "inputs": [],
      "name": "token",
      "outputs": [
        {
          "internalType": "contract IERC20",
          "name": "",
          "type": "address"
        }
      ],
      "stateMutability": "view",
      "type": "function"
    },
    {
      "inputs": [],
      "name": "totalStakeAmount",
      "outputs": [
        {
          "internalType": "uint256",
          "name": "",
          "type": "uint256"
        }
      ],
      "stateMutability": "view",
      "type": "function"
    },
    {
      "inputs": [],
      "name": "totalStakers",
      "outputs": [
        {
          "internalType": "uint256",
          "name": "",
          "type": "uint256"
        }
      ],
      "stateMutability": "view",
      "type": "function"
    },
    {
      "inputs": [
        {
          "internalType": "uint32",
          "name": "_paraId",
          "type": "uint32"
        }
      ],
      "name": "withdrawParachainStake",
      "outputs": [],
      "stateMutability": "nonpayable",
      "type": "function"
    }
  ],
  "bytecode": {
    "object": "0x60806040523480156200001157600080fd5b50604051620024ec380380620024ec8339810160408190526200003491620000f4565b600080546001600160a01b0319166001600160a01b03848116919091179091558116620000a75760405162461bcd60e51b815260206004820152601660248201527f6d7573742073657420746f6b656e206164647265737300000000000000000000604482015260640160405180910390fd5b600180546001600160a01b039092166001600160a01b03199283161790556003805490911633179055506200012b565b80516001600160a01b0381168114620000ef57600080fd5b919050565b6000806040838503121562000107578182fd5b6200011283620000d7565b91506200012260208401620000d7565b90509250929050565b6123b1806200013b6000396000f3fe608060405234801561001057600080fd5b506004361061010b5760003560e01c806386989038116100a25780639abe93e5116100715780639abe93e514610214578063a20ba0dd14610227578063b431d42314610247578063ed9aab511461025a578063fc0c546a1461026b5761010b565b806386989038146101de578063893d20e8146101e75780638da5cb5b146101f857806394409a561461020b5761010b565b806334a621bd116100de57806334a621bd146101795780635aa6e6751461018c578063618323e91461019f57806373252494146101cd5761010b565b80630e08d3fd1461011057806310fe9ae81461012557806319ab453c1461014f578063347f233614610162575b600080fd5b61012361011e366004611d4d565b61027e565b005b6001546001600160a01b03165b6040516001600160a01b0390911681526020015b60405180910390f35b61012361015d366004611bda565b61061d565b61016b60065481565b604051908152602001610146565b610123610187366004611da1565b610767565b600254610132906001600160a01b031681565b6101b26101ad366004611d69565b610d87565b60408051938452602084019290925290820152606001610146565b6002546001600160a01b0316610132565b61016b60055481565b6003546001600160a01b0316610132565b600354610132906001600160a01b031681565b61016b60045481565b610123610222366004611e27565b610dc3565b61023a610235366004611d69565b61104e565b604051610146919061201a565b61016b610255366004611cfb565b611112565b6000546001600160a01b0316610132565b600154610132906001600160a01b031681565b60008054604051633afb728b60e21b815263ffffffff841660048201526001600160a01b039091169063ebedca2c9060240160006040518083038186803b1580156102c857600080fd5b505afa1580156102dc573d6000803e3d6000fd5b505050506040513d6000823e601f3d908101601f191682016040526103049190810190611c16565b60208101519091506001600160a01b031661033a5760405162461bcd60e51b81526004016103319061202d565b60405180910390fd5b63ffffffff8216600090815260086020908152604080832033845290915290208054819062093a809061036d90426122a3565b10156103bb5760405162461bcd60e51b815260206004820152601760248201527f6c6f636b20706572696f64206e6f7420657870697265640000000000000000006044820152606401610331565b600081600201541161040f5760405162461bcd60e51b815260206004820152601d60248201527f6e6f206c6f636b65642062616c616e636520746f2077697468647261770000006044820152606401610331565b600281015460015460405163a9059cbb60e01b8152336004820152602481018390526001600160a01b039091169063a9059cbb90604401602060405180830381600087803b15801561046057600080fd5b505af1158015610474573d6000803e3d6000fd5b505050506040513d601f19601f820116820180604052508101906104989190611bf6565b6104f05760405162461bcd60e51b8152602060048201526024808201527f7769746864726177207374616b6520746f6b656e207472616e736665722066616044820152631a5b195960e21b6064820152608401610331565b806006600082825461050291906122a3565b9091555050600060028301556040513381527f4a7934670bd8304e7da22378be1368f7c4fef17c5aee81804beda8638fe428ec9060200160405180910390a16040805163ffffffff871681523360208201527ff19b91e44f8dc1a6797004bb009e5565044d78c81e23b8fc291c7056a081d507910160405180910390a161061684846003018054610592906122ea565b80601f01602080910402602001604051908101604052809291908181526020018280546105be906122ea565b801561060b5780601f106105e05761010080835404028352916020019161060b565b820191906000526020600020905b8154815290600101906020018083116105ee57829003601f168201915b5050505050836114e8565b5050505050565b6003546001600160a01b031633146106855760405162461bcd60e51b815260206004820152602560248201527f6f6e6c79206f776e65722063616e2073657420676f7665726e616e6365206164604482015264647265737360d81b6064820152608401610331565b6002546001600160a01b0316156106de5760405162461bcd60e51b815260206004820152601e60248201527f676f7665726e616e6365206164647265737320616c72656164792073657400006044820152606401610331565b6001600160a01b0381166107455760405162461bcd60e51b815260206004820152602860248201527f676f7665726e616e636520616464726573732063616e2774206265207a65726f604482015267206164647265737360c01b6064820152608401610331565b600280546001600160a01b0319166001600160a01b0392909216919091179055565b6002546001600160a01b03166107bf5760405162461bcd60e51b815260206004820152601a60248201527f676f7665726e616e63652061646472657373206e6f74207365740000000000006044820152606401610331565b60008054604051633afb728b60e21b815263ffffffff871660048201526001600160a01b039091169063ebedca2c9060240160006040518083038186803b15801561080957600080fd5b505afa15801561081d573d6000803e3d6000fd5b505050506040513d6000823e601f3d908101601f191682016040526108459190810190611c16565b60208101519091506001600160a01b03166108725760405162461bcd60e51b81526004016103319061202d565b63ffffffff851660009081526009602052604080822090516108979087908790611ef0565b908152604051908190036020019020546001600160a01b031614806108fb575063ffffffff85166000908152600960205260409081902090513391906108e09087908790611ef0565b908152604051908190036020019020546001600160a01b0316145b6109585760405162461bcd60e51b815260206004820152602860248201527f6163636f756e7420616c7265616479206c696e6b656420746f20616e6f746865604482015267391039ba30b5b2b960c11b6064820152608401610331565b60006109648633610d87565b6001546040516370a0823160e01b81523360048201529194508493506001600160a01b031691506370a082319060240160206040518083038186803b1580156109ac57600080fd5b505afa1580156109c0573d6000803e3d6000fd5b505050506040513d601f19601f820116820180604052508101906109e49190611ce3565b6109ee9190612210565b831115610a345760405162461bcd60e51b8152602060048201526014602482015273696e73756666696369656e742062616c616e636560601b6044820152606401610331565b63ffffffff861660009081526008602090815260408083203384529091529020610a6260038201878761195d565b5063ffffffff8716600090815260096020526040908190209051339190610a8c9089908990611ef0565b90815260405190819003602001902080546001600160a01b03929092166001600160a01b0319909216919091179055600281015481908015610c1857858110610b075785826002016000828254610ae391906122a3565b925050819055508560066000828254610afc91906122a3565b90915550610c139050565b6001546001600160a01b03166323b872dd3330610b24858b6122a3565b6040516001600160e01b031960e086901b1681526001600160a01b0393841660048201529290911660248301526044820152606401602060405180830381600087803b158015610b7357600080fd5b505af1158015610b87573d6000803e3d6000fd5b505050506040513d601f19601f82011682018060405250810190610bab9190611bf6565b610bf05760405162461bcd60e51b81526020600482015260166024820152751d1c985b9cd9995c8818d85cd9480c4819985a5b195960521b6044820152606401610331565b816002015460066000828254610c0691906122a3565b9091555050600060028301555b610ce7565b6001546040516323b872dd60e01b8152336004820152306024820152604481018890526001600160a01b03909116906323b872dd90606401602060405180830381600087803b158015610c6a57600080fd5b505af1158015610c7e573d6000803e3d6000fd5b505050506040513d601f19601f82011682018060405250810190610ca29190611bf6565b610ce75760405162461bcd60e51b81526020600482015260166024820152751d1c985b9cd9995c8818d85cd9480c8819985a5b195960521b6044820152606401610331565b85826001016000828254610cfb9190612210565b9091555050428255604051869033907fa96c2cce65119a2170d1711a6e82f18f2006448828483ba7545e59547654364790600090a37fd4a0a2739375412e50833885c7401e3a5bf6c455b7597eb548c6a9d6b24012e089338a8a8a604051610d679594939291906120cb565b60405180910390a1610d7c85338a8a8a611582565b505050505050505050565b63ffffffff9190911660009081526008602090815260408083206001600160a01b03909416835292905220805460018201546002909201549092565b60008054604051633afb728b60e21b815263ffffffff851660048201526001600160a01b039091169063ebedca2c9060240160006040518083038186803b158015610e0d57600080fd5b505afa158015610e21573d6000803e3d6000fd5b505050506040513d6000823e601f3d908101601f19168201604052610e499190810190611c16565b60208101519091506001600160a01b0316610e765760405162461bcd60e51b81526004016103319061202d565b63ffffffff83166000908152600860209081526040808320338452909152902060018101548190841115610eec5760405162461bcd60e51b815260206004820152601b60248201527f696e73756666696369656e74207374616b65642062616c616e636500000000006044820152606401610331565b428155600181018054859190600090610f069084906122a3565b9250508190555083816002016000828254610f219190612210565b925050819055508360066000828254610f3a9190612210565b909155505060408051338152602081018690527f3d8d9df4bd0172df32e557fa48e96435cd7f2cac06aaffacfaee608e6f7898ef910160405180910390a17f90d1c4d69b091ae572368d2bf4ea4548bdfed5713f68174434355aa4e596ce78858360030186604051610fae93929190612121565b60405180910390a161061683836003018054610fc9906122ea565b80601f0160208091040260200160405190810160405280929190818152602001828054610ff5906122ea565b80156110425780601f1061101757610100808354040283529160200191611042565b820191906000526020600020905b81548152906001019060200180831161102557829003601f168201915b50505050508633611615565b63ffffffff821660009081526008602090815260408083206001600160a01b03851684529091529020600381018054606092919061108b906122ea565b80601f01602080910402602001604051908101604052809291908181526020018280546110b7906122ea565b80156111045780601f106110d957610100808354040283529160200191611104565b820191906000526020600020905b8154815290600101906020018083116110e757829003601f168201915b505050505091505092915050565b6002546000906001600160a01b0316331461117a5760405162461bcd60e51b815260206004820152602260248201527f6f6e6c7920676f7665726e616e63652063616e20736c617368207265706f727460448201526132b960f11b6064820152608401610331565b60008054604051633afb728b60e21b815263ffffffff871660048201526001600160a01b039091169063ebedca2c9060240160006040518083038186803b1580156111c457600080fd5b505afa1580156111d8573d6000803e3d6000fd5b505050506040513d6000823e601f3d908101601f191682016040526112009190810190611c16565b60208101519091506001600160a01b031661122d5760405162461bcd60e51b81526004016103319061202d565b63ffffffff851660009081526008602090815260408083206001600160a01b03881684529091529020600181015460028201548291908981106112a2578983600201600082825461127e91906122a3565b92505081905550896006600082825461129791906122a3565b909155506113239050565b896112ad8383612210565b106112f1576112bc818b6122a3565b6112c690836122a3565b836001018190555080600660008282546112e091906122a3565b909155505060006002840155611323565b6112fb8183612210565b9950806006600082825461130f91906122a3565b909155505060006001840181905560028401555b89156114da5760015460405163a9059cbb60e01b81526001600160a01b038981166004830152602482018d90529091169063a9059cbb90604401602060405180830381600087803b15801561137757600080fd5b505af115801561138b573d6000803e3d6000fd5b505050506040513d601f19601f820116820180604052508101906113af9190611bf6565b6113ed5760405162461bcd60e51b815260206004820152600f60248201526e1d1c985b9cd9995c8819985a5b1959608a1b6044820152606401610331565b6040805163ffffffff8b1681526001600160a01b038a81166020830152891681830152606081018c905290517f55c5db334476b1c94a951b2786b1a1161cd7d52fdaff231d29f8aaf9b0a954b99181900360800190a16114da85856003018054611456906122ea565b80601f0160208091040260200160405190810160405280929190818152602001828054611482906122ea565b80156114cf5780601f106114a4576101008083540402835291602001916114cf565b820191906000526020600020905b8154815290600101906020018083116114b257829003601f168201915b50505050508c6116b3565b509798975050505050505050565b60008360a001516040015190506000846040015184611506856116df565b60405161151893929190602001611f00565b60408051601f198184030181529190529050600061153b6004633b9aca00612273565b6115459084612228565b905060006115618267ffffffffffffffff168860600151611824565b90506115798760000151858584868c60800151611837565b50505050505050565b60a0850151516040860151600090858561159b866116df565b6040516115b4949392919060608c901b90602001611fcc565b60408051601f19818403018152919052905060006115d76004633b9aca00612273565b6115e19084612228565b905060006115fd8267ffffffffffffffff168a60600151611824565b9050610d7c8960000151858584868e60800151611837565b60a084015160200151604085015160009085611630866116df565b60405161164893929190606088901b90602001611f44565b60408051601f198184030181529190529050600061166b6004633b9aca00612273565b6116759084612228565b905060006116918267ffffffffffffffff168960600151611824565b90506116a98860000151858584868d60800151611837565b5050505050505050565b60a08084015101516040840151600090846116cd856116df565b60405161151893929190602001611f9c565b60008190506008817eff00ff00ff00ff00ff00ff00ff00ff00ff00ff00ff00ff00ff00ff00ff00ff16901b6008827fff00ff00ff00ff00ff00ff00ff00ff00ff00ff00ff00ff00ff00ff00ff00ff0016901c1790506010817dffff0000ffff0000ffff0000ffff0000ffff0000ffff0000ffff0000ffff16901b6010827fffff0000ffff0000ffff0000ffff0000ffff0000ffff0000ffff0000ffff000016901c1790506020817bffffffff00000000ffffffff00000000ffffffff00000000ffffffff16901b6020827fffffffff00000000ffffffff00000000ffffffff00000000ffffffff0000000016901c17905060408177ffffffffffffffff0000000000000000ffffffffffffffff16901b60408277ffffffffffffffff0000000000000000ffffffffffffffff1916901c179050608081901b608082901c179050919050565b60006118308284612254565b9392505050565b60006040518060400160405280600160ff168152602001611857896118c6565b90526040516335eacd0360e21b815290915061080d9063d7ab340c9061188b90849086908b908b908b908b90600401612064565b600060405180830381600087803b1580156118a557600080fd5b505af11580156118b9573d6000803e3d6000fd5b5050505050505050505050565b60408051600180825281830190925260609160009190816020015b60608152602001906001900390816118e157505060408051600060208201526001600160e01b031960e087901b1660218201528151808203600501815260259091019091529091508160008151811061194a57634e487b7160e01b600052603260045260246000fd5b602090810291909101015290505b919050565b828054611969906122ea565b90600052602060002090601f01602090048101928261198b57600085556119d1565b82601f106119a45782800160ff198235161785556119d1565b828001600101855582156119d1579182015b828111156119d15782358255916020019190600101906119b6565b506119dd9291506119e1565b5090565b5b808211156119dd57600081556001016119e2565b805161195881612351565b600082601f830112611a11578081fd5b815167ffffffffffffffff811115611a2b57611a2b61233b565b611a3e601f8201601f19166020016121df565b818152846020838601011115611a52578283fd5b611a638260208301602087016122ba565b949350505050565b600060408284031215611a7c578081fd5b611a8660406121df565b9050815160ff81168114611a9957600080fd5b815260208281015167ffffffffffffffff80821115611ab757600080fd5b818501915085601f830112611acb57600080fd5b815181811115611add57611add61233b565b611aeb848260051b016121df565b818152848101925083850160005b83811015611b2257611b108a888451890101611a01565b85529386019390860190600101611af9565b50508085870152505050505092915050565b600060c08284031215611b45578081fd5b611b4f60c06121df565b9050611b5a82611bc2565b8152611b6860208301611bc2565b6020820152611b7960408301611bc2565b6040820152611b8a60608301611bc2565b6060820152611b9b60808301611bc2565b6080820152611bac60a08301611bc2565b60a082015292915050565b805161195881612369565b805167ffffffffffffffff8116811461195857600080fd5b600060208284031215611beb578081fd5b813561183081612351565b600060208284031215611c07578081fd5b81518015158114611830578182fd5b600060208284031215611c27578081fd5b815167ffffffffffffffff80821115611c3e578283fd5b908301906101608286031215611c52578283fd5b611c5c60c06121df565b611c6583611bb7565b8152611c73602084016119f6565b6020820152604083015182811115611c89578485fd5b611c9587828601611a01565b60408301525060608301516060820152608083015182811115611cb6578485fd5b611cc287828601611a6b565b608083015250611cd58660a08501611b34565b60a082015295945050505050565b600060208284031215611cf4578081fd5b5051919050565b60008060008060808587031215611d10578283fd5b843593506020850135611d2281612369565b92506040850135611d3281612351565b91506060850135611d4281612351565b939692955090935050565b600060208284031215611d5e578081fd5b813561183081612369565b60008060408385031215611d7b578182fd5b8235611d8681612369565b91506020830135611d9681612351565b809150509250929050565b60008060008060608587031215611db6578182fd5b8435611dc181612369565b9350602085013567ffffffffffffffff80821115611ddd578384fd5b818701915087601f830112611df0578384fd5b813581811115611dfe578485fd5b886020828501011115611e0f578485fd5b95986020929092019750949560400135945092505050565b60008060408385031215611e39578182fd5b8235611e4481612369565b946020939093013593505050565b60008151808452611e6a8160208601602086016122ba565b601f01601f19169290920160200192915050565b60006040830160ff835116845260208084015160408287015282815180855260608801915060608160051b89010194508383019250855b81811015611ee357605f19898703018352611ed1868551611e52565b95509284019291840191600101611eb5565b5093979650505050505050565b6000828483379101908152919050565b60008451611f128184602089016122ba565b600f60f81b9083019081528451611f308160018401602089016122ba565b016001810193909352505060210192915050565b60008551611f56818460208a016122ba565b600760f91b9083019081528551611f74816001840160208a016122ba565b01600181019490945250506bffffffffffffffffffffffff1916602182015260350192915050565b60008451611fae8184602089016122ba565b600160fc1b9083019081528451611f308160018401602089016122ba565b60008651611fde818460208b016122ba565b600d60f81b908301908152858760018301376001950194850193909352506bffffffffffffffffffffffff191660218301525060350192915050565b6000602082526118306020830184611e52565b60208082526018908201527f70617261636861696e206e6f7420726567697374657265640000000000000000604082015260600190565b600060c0825261207760c0830189611e7e565b82810360208401526120898189611e7e565b905067ffffffffffffffff808816604085015283820360608501526120ae8288611e52565b925085608085015280851660a08501525050979650505050505050565b63ffffffff861681526001600160a01b038516602082015260806040820181905281018390526000838560a08401378060a0858401015260a0601f19601f86011683010190508260608301529695505050505050565b600063ffffffff85168252602060608184015281855483600182811c91508083168061214e57607f831692505b85831081141561216c57634e487b7160e01b87526022600452602487fd5b606088018390526080880181801561218b576001811461219c576121c6565b60ff198616825287820196506121c6565b60008c815260209020895b868110156121c0578154848201529085019089016121a7565b83019750505b5050505050508092505050826040830152949350505050565b604051601f8201601f1916810167ffffffffffffffff811182821017156122085761220861233b565b604052919050565b6000821982111561222357612223612325565b500190565b600067ffffffffffffffff80831681851680830382111561224b5761224b612325565b01949350505050565b600081600019048311821515161561226e5761226e612325565b500290565b600067ffffffffffffffff8083168185168183048111821515161561229a5761229a612325565b02949350505050565b6000828210156122b5576122b5612325565b500390565b60005b838110156122d55781810151838201526020016122bd565b838111156122e4576000848401525b50505050565b600181811c908216806122fe57607f821691505b6020821081141561231f57634e487b7160e01b600052602260045260246000fd5b50919050565b634e487b7160e01b600052601160045260246000fd5b634e487b7160e01b600052604160045260246000fd5b6001600160a01b038116811461236657600080fd5b50565b63ffffffff8116811461236657600080fdfea26469706673582212204ef3eeeeed0f7bbc22899c58b13a07a2782fd3e1fe326d35c81de31bca7c1aa164736f6c63430008030033",
    "linkReferences": {}
  },
  "methodIdentifiers": {
    "depositParachainStake(uint32,bytes,uint256)": "34a621bd",
    "getGovernanceAddress()": "73252494",
    "getOwner()": "893d20e8",
    "getParachainStakerDetails(uint32,address)": "a20ba0dd",
    "getParachainStakerInfo(uint32,address)": "618323e9",
    "getTokenAddress()": "10fe9ae8",
    "governance()": "5aa6e675",
    "init(address)": "19ab453c",
    "owner()": "8da5cb5b",
    "registryAddress()": "ed9aab51",
    "requestParachainStakeWithdraw(uint32,uint256)": "9abe93e5",
    "slashParachainReporter(uint256,uint32,address,address)": "b431d423",
    "toWithdraw()": "347f2336",
    "token()": "fc0c546a",
    "totalStakeAmount()": "94409a56",
    "totalStakers()": "86989038",
    "withdrawParachainStake(uint32)": "0e08d3fd"
  },
  "id": 21
}