{
  "abi": [
    {
      "anonymous": false,
      "inputs": [
        {
          "indexed": false,
          "internalType": "address",
          "name": "caller",
          "type": "address"
        },
        {
          "indexed": false,
          "internalType": "uint32",
          "name": "parachain",
          "type": "uint32"
        },
        {
          "indexed": false,
          "internalType": "address",
          "name": "owner",
          "type": "address"
        }
      ],
      "name": "ParachainRegistered",
      "type": "event"
    },
    {
      "inputs": [
        {
          "internalType": "address",
          "name": "_address",
          "type": "address"
        }
      ],
      "name": "getByAddress",
      "outputs": [
        {
          "components": [
            {
              "internalType": "uint32",
              "name": "id",
              "type": "uint32"
            },
            {
              "internalType": "address",
              "name": "owner",
              "type": "address"
            },
            {
              "internalType": "bytes",
              "name": "palletInstance",
              "type": "bytes"
            },
            {
              "internalType": "uint256",
              "name": "weightToFee",
              "type": "uint256"
            },
            {
              "components": [
                {
                  "internalType": "uint8",
                  "name": "parents",
                  "type": "uint8"
                },
                {
                  "internalType": "bytes[]",
                  "name": "interior",
                  "type": "bytes[]"
                }
              ],
              "internalType": "struct XcmTransactorV2.Multilocation",
              "name": "feeLocation",
              "type": "tuple"
            },
            {
              "components": [
                {
                  "internalType": "uint64",
                  "name": "reportStakeDeposited",
                  "type": "uint64"
                },
                {
                  "internalType": "uint64",
                  "name": "reportStakeWithdrawRequested",
                  "type": "uint64"
                },
                {
                  "internalType": "uint64",
                  "name": "reportStakeWithdrawn",
                  "type": "uint64"
                },
                {
                  "internalType": "uint64",
                  "name": "reportVoteTallied",
                  "type": "uint64"
                },
                {
                  "internalType": "uint64",
                  "name": "reportVoteExecuted",
                  "type": "uint64"
                },
                {
                  "internalType": "uint64",
                  "name": "reportSlash",
                  "type": "uint64"
                }
              ],
              "internalType": "struct IRegistry.Weights",
              "name": "weights",
              "type": "tuple"
            }
          ],
          "internalType": "struct IRegistry.Parachain",
          "name": "",
          "type": "tuple"
        }
      ],
      "stateMutability": "view",
      "type": "function"
    },
    {
      "inputs": [
        {
          "internalType": "uint32",
          "name": "_id",
          "type": "uint32"
        }
      ],
      "name": "getById",
      "outputs": [
        {
          "components": [
            {
              "internalType": "uint32",
              "name": "id",
              "type": "uint32"
            },
            {
              "internalType": "address",
              "name": "owner",
              "type": "address"
            },
            {
              "internalType": "bytes",
              "name": "palletInstance",
              "type": "bytes"
            },
            {
              "internalType": "uint256",
              "name": "weightToFee",
              "type": "uint256"
            },
            {
              "components": [
                {
                  "internalType": "uint8",
                  "name": "parents",
                  "type": "uint8"
                },
                {
                  "internalType": "bytes[]",
                  "name": "interior",
                  "type": "bytes[]"
                }
              ],
              "internalType": "struct XcmTransactorV2.Multilocation",
              "name": "feeLocation",
              "type": "tuple"
            },
            {
              "components": [
                {
                  "internalType": "uint64",
                  "name": "reportStakeDeposited",
                  "type": "uint64"
                },
                {
                  "internalType": "uint64",
                  "name": "reportStakeWithdrawRequested",
                  "type": "uint64"
                },
                {
                  "internalType": "uint64",
                  "name": "reportStakeWithdrawn",
                  "type": "uint64"
                },
                {
                  "internalType": "uint64",
                  "name": "reportVoteTallied",
                  "type": "uint64"
                },
                {
                  "internalType": "uint64",
                  "name": "reportVoteExecuted",
                  "type": "uint64"
                },
                {
                  "internalType": "uint64",
                  "name": "reportSlash",
                  "type": "uint64"
                }
              ],
              "internalType": "struct IRegistry.Weights",
              "name": "weights",
              "type": "tuple"
            }
          ],
          "internalType": "struct IRegistry.Parachain",
          "name": "",
          "type": "tuple"
        }
      ],
      "stateMutability": "view",
      "type": "function"
    },
    {
      "inputs": [
        {
          "internalType": "uint32",
          "name": "_paraId",
          "type": "uint32"
        },
        {
          "internalType": "uint8",
          "name": "_palletInstance",
          "type": "uint8"
        },
        {
          "internalType": "uint256",
          "name": "_weightToFee",
          "type": "uint256"
        },
        {
          "components": [
            {
              "internalType": "uint8",
              "name": "parents",
              "type": "uint8"
            },
            {
              "internalType": "bytes[]",
              "name": "interior",
              "type": "bytes[]"
            }
          ],
          "internalType": "struct XcmTransactorV2.Multilocation",
          "name": "_feeLocation",
          "type": "tuple"
        },
        {
          "components": [
            {
              "internalType": "uint64",
              "name": "reportStakeDeposited",
              "type": "uint64"
            },
            {
              "internalType": "uint64",
              "name": "reportStakeWithdrawRequested",
              "type": "uint64"
            },
            {
              "internalType": "uint64",
              "name": "reportStakeWithdrawn",
              "type": "uint64"
            },
            {
              "internalType": "uint64",
              "name": "reportVoteTallied",
              "type": "uint64"
            },
            {
              "internalType": "uint64",
              "name": "reportVoteExecuted",
              "type": "uint64"
            },
            {
              "internalType": "uint64",
              "name": "reportSlash",
              "type": "uint64"
            }
          ],
          "internalType": "struct IRegistry.Weights",
          "name": "_weights",
          "type": "tuple"
        }
      ],
      "name": "register",
      "outputs": [],
      "stateMutability": "nonpayable",
      "type": "function"
    },
    {
      "inputs": [
        {
          "internalType": "uint32",
          "name": "_paraId",
          "type": "uint32"
        },
        {
          "internalType": "uint8",
          "name": "_palletInstance",
          "type": "uint8"
        }
      ],
      "name": "x2",
      "outputs": [
        {
          "internalType": "bytes[]",
          "name": "",
          "type": "bytes[]"
        }
      ],
      "stateMutability": "pure",
      "type": "function"
    }
  ],
  "bytecode": {
    "object": "0x608060405234801561001057600080fd5b506110d6806100206000396000f3fe608060405234801561001057600080fd5b506004361061004c5760003560e01c806330257bf7146100515780636072377f1461007a578063cbe604671461008f578063ebedca2c146100af575b600080fd5b61006461005f366004610bb3565b6100c2565b6040516100719190610f12565b60405180910390f35b61008d610088366004610c3e565b610320565b005b6100a261009d366004610c0c565b610634565b6040516100719190610e9e565b6100646100bd366004610bf2565b6106d6565b6100ca610934565b6001600160a01b0380831660009081526001602081815260408084205463ffffffff908116855284835293819020815160c081018352815495861681526401000000009095049095169184019190915290830180549293929184019161012f9061103a565b80601f016020809104026020016040519081016040528092919081815260200182805461015b9061103a565b80156101a85780601f1061017d576101008083540402835291602001916101a8565b820191906000526020600020905b81548152906001019060200180831161018b57829003601f168201915b5050509183525050600282015460208083019190915260408051808201825260038501805460ff168252600486018054845181870281018701865281815294909601959294919385830193909260009084015b828210156102a757838290600052602060002001805461021a9061103a565b80601f01602080910402602001604051908101604052809291908181526020018280546102469061103a565b80156102935780601f1061026857610100808354040283529160200191610293565b820191906000526020600020905b81548152906001019060200180831161027657829003601f168201915b5050505050815260200190600101906101fb565b5050509152505081526040805160c081018252600584015467ffffffffffffffff8082168352600160401b8083048216602085810191909152600160801b8404831695850195909552600160c01b9092048116606084015260069095015480861660808401520490931660a0840152015290505b919050565b600061080c6001600160a01b031663343b3e006040518060400160405280600160ff1681526020016103528a8a610634565b8152506040518263ffffffff1660e01b81526004016103719190610eff565b60206040518083038186803b15801561038957600080fd5b505afa15801561039d573d6000803e3d6000fd5b505050506040513d601f19601f820116820180604052508101906103c19190610bd6565b9050336001600160a01b0382161461040b5760405162461bcd60e51b81526020600482015260096024820152682737ba1037bbb732b960b91b604482015260640160405180910390fd5b6040518060c001604052808763ffffffff168152602001336001600160a01b0316815260200186604051602001610455919060f89190911b6001600160f81b031916815260010190565b60408051601f198184030181529181529082526020828101889052828201879052606090920185905263ffffffff808a16600090815280845282902084518154868601516001600160a01b0316640100000000026001600160c01b0319909116919093161791909117815590830151805191926104da926001850192909101906109a5565b50606082015160028201556080820151805160038301805460ff191660ff90921691909117815560208083015180516105199260048701920190610a29565b50505060a091820151805160058301805460208085015160408087015160608089015167ffffffffffffffff9889166fffffffffffffffffffffffffffffffff1997881617600160401b958a168602176fffffffffffffffffffffffffffffffff16600160801b938a16939093026001600160c01b031692909217600160c01b928916929092029190911790955560808701516006909801805497909901519786169690931695909517959093169093029390931790935533600081815260018552829020805463ffffffff191663ffffffff8c16908117909155825182815294850152908301527f5924a4b3ddb01a789d7d3704b2d947c3d71f12a888ce7855ed6b1be3242d850e910160405180910390a1505050505050565b604080516002808252606082810190935260009190816020015b606081526020019060019003908161064e57905050905061066e846108aa565b8160008151811061068f57634e487b7160e01b600052603260045260246000fd5b60200260200101819052506106a3836108fa565b816001815181106106c457634e487b7160e01b600052603260045260246000fd5b60209081029190910101529392505050565b6106de610934565b63ffffffff82811660009081526020818152604091829020825160c081018452815494851681526401000000009094046001600160a01b03169184019190915260018101805491928401916107329061103a565b80601f016020809104026020016040519081016040528092919081815260200182805461075e9061103a565b80156107ab5780601f10610780576101008083540402835291602001916107ab565b820191906000526020600020905b81548152906001019060200180831161078e57829003601f168201915b5050509183525050600282015460208083019190915260408051808201825260038501805460ff168252600486018054845181870281018701865281815294909601959294919385830193909260009084015b828210156102a757838290600052602060002001805461081d9061103a565b80601f01602080910402602001604051908101604052809291908181526020018280546108499061103a565b80156108965780601f1061086b57610100808354040283529160200191610896565b820191906000526020600020905b81548152906001019060200180831161087957829003601f168201915b5050505050815260200190600101906107fe565b6040516001600160e01b031960e083901b16602082015260609060240160408051601f19818403018152908290526108e491602001610e5c565b6040516020818303038152906040529050919050565b6040516001600160f81b031960f883901b16602082015260609060210160408051601f19818403018152908290526108e491602001610e81565b6040805160c081018252600080825260208083018290526060838501819052808401839052845180860190955291845283015290608082019081526040805160c08101825260008082526020828101829052928201819052606082018190526080820181905260a082015291015290565b8280546109b19061103a565b90600052602060002090601f0160209004810192826109d35760008555610a19565b82601f106109ec57805160ff1916838001178555610a19565b82800160010185558215610a19579182015b82811115610a195782518255916020019190600101906109fe565b50610a25929150610a82565b5090565b828054828255906000526020600020908101928215610a76579160200282015b82811115610a765782518051610a669184916020909101906109a5565b5091602001919060010190610a49565b50610a25929150610a97565b5b80821115610a255760008155600101610a83565b80821115610a25576000610aab8282610ab4565b50600101610a97565b508054610ac09061103a565b6000825580601f10610ad25750610af0565b601f016020900490600052602060002090810190610af09190610a82565b50565b600060c08284031215610b04578081fd5b610b0e60c0610fd9565b9050610b1982610b8a565b8152610b2760208301610b8a565b6020820152610b3860408301610b8a565b6040820152610b4960608301610b8a565b6060820152610b5a60808301610b8a565b6080820152610b6b60a08301610b8a565b60a082015292915050565b803563ffffffff8116811461031b57600080fd5b803567ffffffffffffffff8116811461031b57600080fd5b803560ff8116811461031b57600080fd5b600060208284031215610bc4578081fd5b8135610bcf8161108b565b9392505050565b600060208284031215610be7578081fd5b8151610bcf8161108b565b600060208284031215610c03578081fd5b610bcf82610b76565b60008060408385031215610c1e578081fd5b610c2783610b76565b9150610c3560208401610ba2565b90509250929050565b60008060008060006101408688031215610c56578081fd5b610c5f86610b76565b9450610c6d60208701610ba2565b93506040860135925067ffffffffffffffff8060608801351115610c8f578182fd5b606087013587016040818a031215610ca5578283fd5b610caf6040610fd9565b610cb882610ba2565b81528260208301351115610cca578384fd5b60208201358201915089601f830112610ce1578384fd5b8282351115610cf257610cf2611075565b610d026020833560051b01610fd9565b82358152602080820191908401865b8535811015610d97578d603f833588010112610d2b578788fd5b602082358701013587811115610d4357610d43611075565b610d56601f8201601f1916602001610fd9565b8181528f60408386358b0101011115610d6d57898afd5b81604085358a01016020830137602091810182018a90528552938401939190910190600101610d11565b50506020830152509350610db2915088905060808801610af3565b90509295509295909350565b60008151808452610dd681602086016020860161100a565b601f01601f19169290920160200192915050565b60006040830160ff835116845260208084015160408287015282815180855260608801915060608160051b89010194508383019250855b81811015610e4f57605f19898703018352610e3d868551610dbe565b95509284019291840191600101610e21565b5093979650505050505050565b60008082528251610e7481600185016020870161100a565b9190910160010192915050565b600160fa1b81528151600090610e7481600185016020870161100a565b6000602080830181845280855180835260408601915060408160051b8701019250838701855b82811015610ef257603f19888603018452610ee0858351610dbe565b94509285019290850190600101610ec4565b5092979650505050505050565b600060208252610bcf6020830184610dea565b60006020825263ffffffff835116602083015260018060a01b0360208401511660408301526040830151610160806060850152610f53610180850183610dbe565b9150606085015160808501526080850151601f198584030160a0860152610f7a8382610dea565b60a096870151805167ffffffffffffffff90811660c08901526020820151811660e08901526040820151811661010089015260608201518116610120890152608082015181166101408901529701519096169190940152509192915050565b604051601f8201601f1916810167ffffffffffffffff8111828210171561100257611002611075565b604052919050565b60005b8381101561102557818101518382015260200161100d565b83811115611034576000848401525b50505050565b600181811c9082168061104e57607f821691505b6020821081141561106f57634e487b7160e01b600052602260045260246000fd5b50919050565b634e487b7160e01b600052604160045260246000fd5b6001600160a01b0381168114610af057600080fdfea264697066735822122054bee9ff0d65fabcd0cfb9e7a145e038d9b440dafdb220a71133bd1bb496529864736f6c63430008030033",
    "linkReferences": {}
  },
  "methodIdentifiers": {
    "getByAddress(address)": "30257bf7",
    "getById(uint32)": "ebedca2c",
    "register(uint32,uint8,uint256,(uint8,bytes[]),(uint64,uint64,uint64,uint64,uint64,uint64))": "6072377f",
    "x2(uint32,uint8)": "cbe60467"
  },
  "id": 20
}