{
  "abi": [
    {
      "inputs": [
        {
          "internalType": "address",
          "name": "_registry",
          "type": "address"
        },
        {
          "internalType": "address",
          "name": "_teamMultiSig",
          "type": "address"
        }
      ],
      "stateMutability": "nonpayable",
      "type": "constructor"
    },
    {
      "anonymous": false,
      "inputs": [
        {
          "indexed": false,
          "internalType": "uint32",
          "name": "_paraId",
          "type": "uint32"
        },
        {
          "indexed": false,
          "internalType": "bytes32",
          "name": "_queryId",
          "type": "bytes32"
        },
        {
          "indexed": false,
          "internalType": "uint256",
          "name": "_timestamp",
          "type": "uint256"
        },
        {
          "indexed": false,
          "internalType": "address",
          "name": "_reporter",
          "type": "address"
        }
      ],
      "name": "NewParachainDispute",
      "type": "event"
    },
    {
      "anonymous": false,
      "inputs": [
        {
          "indexed": false,
          "internalType": "bytes32",
          "name": "_disputId",
          "type": "bytes32"
        },
        {
          "indexed": false,
          "internalType": "uint256",
          "name": "_totalTipsFor",
          "type": "uint256"
        },
        {
          "indexed": false,
          "internalType": "uint256",
          "name": "_totalTipsAgainst",
          "type": "uint256"
        },
        {
          "indexed": false,
          "internalType": "uint256",
          "name": "_totalTipsInvalid",
          "type": "uint256"
        },
        {
          "indexed": false,
          "internalType": "uint256",
          "name": "_totalReportsFor",
          "type": "uint256"
        },
        {
          "indexed": false,
          "internalType": "uint256",
          "name": "_totalReportsAgainst",
          "type": "uint256"
        },
        {
          "indexed": false,
          "internalType": "uint256",
          "name": "_totalReportsInvalid",
          "type": "uint256"
        }
      ],
      "name": "ParachainVoted",
      "type": "event"
    },
    {
      "anonymous": false,
      "inputs": [
        {
          "indexed": false,
          "internalType": "bytes32",
          "name": "_disputeId",
          "type": "bytes32"
        },
        {
          "indexed": false,
          "internalType": "enum ParachainGovernance.VoteResult",
          "name": "_result",
          "type": "uint8"
        }
      ],
      "name": "VoteExecuted",
      "type": "event"
    },
    {
      "anonymous": false,
      "inputs": [
        {
          "indexed": false,
          "internalType": "bytes32",
          "name": "_disputeId",
          "type": "bytes32"
        },
        {
          "indexed": false,
          "internalType": "enum ParachainGovernance.VoteResult",
          "name": "_result",
          "type": "uint8"
        },
        {
          "indexed": false,
          "internalType": "address",
          "name": "_initiator",
          "type": "address"
        },
        {
          "indexed": false,
          "internalType": "address",
          "name": "_reporter",
          "type": "address"
        }
      ],
      "name": "VoteTallied",
      "type": "event"
    },
    {
      "anonymous": false,
      "inputs": [
        {
          "indexed": false,
          "internalType": "uint32",
          "name": "_paraId",
          "type": "uint32"
        },
        {
          "indexed": false,
          "internalType": "bytes32",
          "name": "_queryId",
          "type": "bytes32"
        },
        {
          "indexed": false,
          "internalType": "uint256",
          "name": "_timestamp",
          "type": "uint256"
        },
        {
          "indexed": false,
          "internalType": "bool",
          "name": "_supports",
          "type": "bool"
        },
        {
          "indexed": false,
          "internalType": "address",
          "name": "_voter",
          "type": "address"
        },
        {
          "indexed": false,
          "internalType": "bool",
          "name": "_invalidQuery",
          "type": "bool"
        }
      ],
      "name": "Voted",
      "type": "event"
    },
    {
      "inputs": [],
      "name": "autopayAddrsQueryId",
      "outputs": [
        {
          "internalType": "bytes32",
          "name": "",
          "type": "bytes32"
        }
      ],
      "stateMutability": "view",
      "type": "function"
    },
    {
      "inputs": [
        {
          "internalType": "bytes32",
          "name": "_queryId",
          "type": "bytes32"
        },
        {
          "internalType": "uint256",
          "name": "_timestamp",
          "type": "uint256"
        },
        {
          "internalType": "bytes",
          "name": "_value",
          "type": "bytes"
        },
        {
          "internalType": "address",
          "name": "_disputedReporter",
          "type": "address"
        },
        {
          "internalType": "address",
          "name": "_disputeInitiator",
          "type": "address"
        },
        {
          "internalType": "uint256",
          "name": "_slashAmount",
          "type": "uint256"
        }
      ],
      "name": "beginParachainDispute",
      "outputs": [],
      "stateMutability": "nonpayable",
      "type": "function"
    },
    {
      "inputs": [
        {
          "internalType": "bytes32",
          "name": "_disputeId",
          "type": "bytes32"
        },
        {
          "internalType": "address",
          "name": "_voter",
          "type": "address"
        }
      ],
      "name": "didVote",
      "outputs": [
        {
          "internalType": "bool",
          "name": "",
          "type": "bool"
        }
      ],
      "stateMutability": "view",
      "type": "function"
    },
    {
      "inputs": [
        {
          "internalType": "bytes32",
          "name": "_disputeId",
          "type": "bytes32"
        }
      ],
      "name": "executeVote",
      "outputs": [],
      "stateMutability": "nonpayable",
      "type": "function"
    },
    {
      "inputs": [
        {
          "internalType": "bytes32",
          "name": "_disputeId",
          "type": "bytes32"
        }
      ],
      "name": "getDisputeInfo",
      "outputs": [
        {
          "internalType": "bytes32",
          "name": "",
          "type": "bytes32"
        },
        {
          "internalType": "uint256",
          "name": "",
          "type": "uint256"
        },
        {
          "internalType": "bytes",
          "name": "",
          "type": "bytes"
        },
        {
          "internalType": "address",
          "name": "",
          "type": "address"
        }
      ],
      "stateMutability": "view",
      "type": "function"
    },
    {
      "inputs": [
        {
          "internalType": "bytes32",
          "name": "_disputeId",
          "type": "bytes32"
        },
        {
          "internalType": "uint8",
          "name": "_voteRound",
          "type": "uint8"
        }
      ],
      "name": "getVoteInfo",
      "outputs": [
        {
          "internalType": "bytes32",
          "name": "",
          "type": "bytes32"
        },
        {
          "internalType": "uint256[16]",
          "name": "",
          "type": "uint256[16]"
        },
        {
          "internalType": "bool",
          "name": "",
          "type": "bool"
        },
        {
          "internalType": "enum ParachainGovernance.VoteResult",
          "name": "",
          "type": "uint8"
        },
        {
          "internalType": "address",
          "name": "",
          "type": "address"
        }
      ],
      "stateMutability": "view",
      "type": "function"
    },
    {
      "inputs": [
        {
          "internalType": "bytes32",
          "name": "_hash",
          "type": "bytes32"
        }
      ],
      "name": "getVoteRounds",
      "outputs": [
        {
          "internalType": "uint8",
          "name": "",
          "type": "uint8"
        }
      ],
      "stateMutability": "view",
      "type": "function"
    },
    {
      "inputs": [
        {
          "internalType": "address",
          "name": "_parachainStaking",
          "type": "address"
        }
      ],
      "name": "init",
      "outputs": [],
      "stateMutability": "nonpayable",
      "type": "function"
    },
    {
      "inputs": [],
      "name": "owner",
      "outputs": [
        {
          "internalType": "address",
          "name": "",
          "type": "address"
        }
      ],
      "stateMutability": "view",
      "type": "function"
    },
    {
      "inputs": [],
      "name": "parachainStaking",
      "outputs": [
        {
          "internalType": "contract IParachainStaking",
          "name": "",
          "type": "address"
        }
      ],
      "stateMutability": "view",
      "type": "function"
    },
    {
      "inputs": [],
      "name": "registryAddress",
      "outputs": [
        {
          "internalType": "address",
          "name": "",
          "type": "address"
        }
      ],
      "stateMutability": "view",
      "type": "function"
    },
    {
      "inputs": [
        {
          "internalType": "bytes32",
          "name": "_disputeId",
          "type": "bytes32"
        }
      ],
      "name": "tallyVotes",
      "outputs": [],
      "stateMutability": "nonpayable",
      "type": "function"
    },
    {
      "inputs": [],
      "name": "teamMultisig",
      "outputs": [
        {
          "internalType": "address",
          "name": "",
          "type": "address"
        }
      ],
      "stateMutability": "view",
      "type": "function"
    },
    {
      "inputs": [],
      "name": "token",
      "outputs": [
        {
          "internalType": "contract IERC20",
          "name": "",
          "type": "address"
        }
      ],
      "stateMutability": "view",
      "type": "function"
    },
    {
      "inputs": [
        {
          "internalType": "bytes32",
          "name": "_disputeId",
          "type": "bytes32"
        },
        {
          "internalType": "bool",
          "name": "_supports",
          "type": "bool"
        },
        {
          "internalType": "bool",
          "name": "_validDispute",
          "type": "bool"
        }
      ],
      "name": "vote",
      "outputs": [],
      "stateMutability": "nonpayable",
      "type": "function"
    },
    {
      "inputs": [
        {
          "internalType": "bytes32",
          "name": "_disputeId",
          "type": "bytes32"
        },
        {
          "internalType": "uint256",
          "name": "_totalTipsFor",
          "type": "uint256"
        },
        {
          "internalType": "uint256",
          "name": "_totalTipsAgainst",
          "type": "uint256"
        },
        {
          "internalType": "uint256",
          "name": "_totalTipsInvalid",
          "type": "uint256"
        },
        {
          "internalType": "uint256",
          "name": "_totalReportsFor",
          "type": "uint256"
        },
        {
          "internalType": "uint256",
          "name": "_totalReportsAgainst",
          "type": "uint256"
        },
        {
          "internalType": "uint256",
          "name": "_totalReportsInvalid",
          "type": "uint256"
        }
      ],
      "name": "voteParachain",
      "outputs": [],
      "stateMutability": "nonpayable",
      "type": "function"
    }
  ],
  "bytecode": {
    "object": "0x60a060405260006080908152620000189060c062000164565b60408051601f1981840301815290829052620000379160200162000180565b604051602081830303815290604052805190602001206005553480156200005d57600080fd5b5060405162002a7538038062002a758339810160408190526200008091620000df565b600080546001600160a01b039384166001600160a01b0319918216179091556004805492909316918116919091179091556001805490911633179055620001bc565b80516001600160a01b0381168114620000da57600080fd5b919050565b60008060408385031215620000f2578182fd5b620000fd83620000c2565b91506200010d60208401620000c2565b90509250929050565b60008151808452815b818110156200013d576020818501810151868301820152016200011f565b818111156200014f5782602083870101525b50601f01601f19169290920160200192915050565b60006020825262000179602083018462000116565b9392505050565b600060408252601060408301526f4175746f70617941646472657373657360801b60608301526080602083015262000179608083018462000116565b6128a980620001cc6000396000f3fe608060405234801561001057600080fd5b50600436106101005760003560e01c806380ace42611610097578063dbc0c08511610066578063dbc0c0851461028d578063e01da457146102a0578063ed9aab51146102b3578063fc0c546a146102c457610100565b806380ace426146102255780638c6f0e1c146102385780638da5cb5b14610263578063d8add0f61461027657610100565b8063248638e5116100d3578063248638e5146101b75780633db5a7a6146101dc578063658977ca146101ef5780637c496ebf1461021257610100565b8063187a9c071461010557806319ab453c1461016b5780631d5d369f146101805780632479673e14610193575b600080fd5b6101566101133660046120d2565b6000828152600760209081526040808320600883528184205460ff90811685529083528184206001600160a01b0386168552601201909252909120541692915050565b60405190151581526020015b60405180910390f35b61017e610179366004612066565b6102d7565b005b61017e61018e366004612142565b61048b565b6101a66101a1366004612239565b610950565b60405161016295949392919061249b565b6101ca6101c53660046120ba565b610a58565b60405160ff9091168152602001610162565b61017e6101ea3660046121ee565b610a70565b6102026101fd3660046120ba565b610c96565b604051610162949392919061254b565b61017e610220366004612101565b610d6d565b61017e6102333660046120ba565b6110eb565b60025461024b906001600160a01b031681565b6040516001600160a01b039091168152602001610162565b60015461024b906001600160a01b031681565b61027f60055481565b604051908152602001610162565b60045461024b906001600160a01b031681565b61017e6102ae3660046120ba565b6116a7565b6000546001600160a01b031661024b565b60035461024b906001600160a01b031681565b6001546001600160a01b0316331461030a5760405162461bcd60e51b8152600401610301906125ba565b60405180910390fd5b6002546001600160a01b03161561036f5760405162461bcd60e51b8152602060048201526024808201527f70617261636861696e5374616b696e67206164647265737320616c7265616479604482015263081cd95d60e21b6064820152608401610301565b6001600160a01b0381166103dc5760405162461bcd60e51b815260206004820152602e60248201527f70617261636861696e5374616b696e6720616464726573732063616e2774206260448201526d65207a65726f206164647265737360901b6064820152608401610301565b600280546001600160a01b0319166001600160a01b0383169081179091556040805163021fd35d60e31b815290516310fe9ae891600480820192602092909190829003018186803b15801561043057600080fd5b505afa158015610444573d6000803e3d6000fd5b505050506040513d601f19601f820116820180604052508101906104689190612082565b600380546001600160a01b0319166001600160a01b039290921691909117905550565b600080546040516330257bf760e01b81523360048201526001600160a01b03909116906330257bf79060240160006040518083038186803b1580156104cf57600080fd5b505afa1580156104e3573d6000803e3d6000fd5b505050506040513d6000823e601f3d908101601f1916820160405261050b919081019061225d565b60208101519091506001600160a01b031633148015610536575060208101516001600160a01b031615155b6105525760405162461bcd60e51b8152600401610301906125ba565b80516040805163ffffffff909216602083015281018990526060810188905260009060800160408051601f1981840301815291815281516020928301206000818152600890935291205490915060ff16156106b7576000818152600760209081526040808320600883528184205460ff1684529091529020600401546202a300906105dd9042612755565b106106345760405162461bcd60e51b815260206004820152602160248201527f4e657720766f746520726f756e642077696e646f772068617320656c617073656044820152601960fa1b6064820152608401610301565b6000818152600760209081526040808320600883528184205460ff908116855292529091206011015416156106b75760405162461bcd60e51b815260206004820152602360248201527f50726576696f757320726f756e64206d757374206e6f742062652065786563756044820152621d195960ea1b6064820152608401610301565b6000818152600860205260408120805460ff16916106d4836127f2565b82546101009290920a60ff8181021990931691831602179091556000838152600760209081526040808320600880845282852080548716865291845291842087815560118101805462010000600160b01b031916620100006001600160a01b038e1602179055436003820155426002820155938790529152805483166001838101919091559054919350911614156108eb5761a8c06107738a42612755565b106107db5760405162461bcd60e51b815260206004820152603260248201527f44697370757465206d75737420626520737461727465642077697468696e207260448201527165706f7274696e67206c6f636b2074696d6560701b6064820152608401610301565b60008281526006602052604090206107f7600382018a8a611dbc565b508351815463ffffffff191663ffffffff918216178255600182018c905560028083018c9055600480840180546001600160a01b0319166001600160a01b038c8116918217909255600088815260066020526040908190206005908101549088015593548951945163b431d42360e01b81529384018b9052939094166024830152604482019390935230606482015291169063b431d42390608401602060405180830381600087803b1580156108ac57600080fd5b505af11580156108c0573d6000803e3d6000fd5b505050506040513d601f19601f820116820180604052508101906108e4919061232a565b6005909101555b82516040805163ffffffff9092168252602082018c905281018a90526001600160a01b03871660608201527f696245cecab71c5056a492b11997952e3600534ec9d03826062364219dd8bab2906080015b60405180910390a150505050505050505050565b600061095a611e40565b5050600091825260076020818152604080852060ff94851686528252938490208054855161020081018752600183015481526002830154938101939093526003820154958301959095526004810154606083015260058101546080830152600681015460a08301529182015460c0820152600882015460e0820152600982015461010080830191909152600a830154610120830152600b830154610140830152600c830154610160830152600d830154610180830152600e8301546101a0830152600f8301546101c083015260108301546101e08301526011909201549394909380841693928104909216916201000090046001600160a01b031690565b60008181526008602052604090205460ff165b919050565b600080546040516330257bf760e01b81523360048201526001600160a01b03909116906330257bf79060240160006040518083038186803b158015610ab457600080fd5b505afa158015610ac8573d6000803e3d6000fd5b505050506040513d6000823e601f3d908101601f19168201604052610af0919081019061225d565b60208101519091506001600160a01b031633148015610b1b575060208101516001600160a01b031615155b610b375760405162461bcd60e51b8152600401610301906125ba565b600088815260066020526040902054815163ffffffff908116911614610b9f5760405162461bcd60e51b815260206004820152601a60248201527f696e76616c69642064697370757465206964656e7469666965720000000000006044820152606401610301565b6000888152600760209081526040808320600883528184205460ff168452909152902080548914610be25760405162461bcd60e51b8152600401610301906125dd565b600481015415610c045760405162461bcd60e51b815260040161030190612583565b6008810188905560098101879055600a8101869055600b8101859055600c8101849055600d8101839055604080518a8152602081018a9052908101889052606081018790526080810186905260a0810185905260c081018490527ff8cd23a59e81456ef65ca535760ec2e30be6adcf9b488967109ac43388eb824d9060e00160405180910390a1505050505050505050565b6000818152600660205260408120600181015460028201546004830154600384018054869560609587959194909391926001600160a01b03909116908290610cdd9061279c565b80601f0160208091040260200160405190810160405280929190818152602001828054610d099061279c565b8015610d565780601f10610d2b57610100808354040283529160200191610d56565b820191906000526020600020905b815481529060010190602001808311610d3957829003601f168201915b505050505091509450945094509450509193509193565b6000838152600760209081526040808320600883528184205460ff168452909152902080548414610db05760405162461bcd60e51b8152600401610301906125dd565b600481015415610dd25760405162461bcd60e51b815260040161030190612583565b33600090815260128201602052604090205460ff1615610e345760405162461bcd60e51b815260206004820152601860248201527f53656e6465722068617320616c726561647920766f74656400000000000000006044820152606401610301565b60008481526006602090815260408083203380855260128601909352818420805460ff1916600117905560035491516370a0823160e01b8152600481019390935292916001600160a01b03909116906370a082319060240160206040518083038186803b158015610ea457600080fd5b505afa158015610eb8573d6000803e3d6000fd5b505050506040513d601f19601f82011682018060405250810190610edc919061232a565b600254835460405163618323e960e01b815263ffffffff909116600482015233602482015291925060009182916001600160a01b03169063618323e99060440160606040518083038186803b158015610f3457600080fd5b505afa158015610f48573d6000803e3d6000fd5b505050506040513d601f19601f82011682018060405250810190610f6c9190612342565b92509250508082610f7d91906126a2565b610f8790846126a2565b925085610fe05782856005016002016000828254610fa591906126a2565b90915550506004546001600160a01b0316331415610fdb57600185600e016002016000828254610fd591906126a2565b90915550505b61107a565b861561102d5782856005016000016000828254610ffd91906126a2565b90915550506004546001600160a01b0316331415610fdb57600185600e016000016000828254610fd591906126a2565b8285600501600101600082825461104491906126a2565b90915550506004546001600160a01b031633141561107a57600185600e01600101600082825461107491906126a2565b90915550505b8354600185015460028601546040805163ffffffff9094168452602084019290925282820152881515606083015233608083015287151560a0830152517fb25cff6c66a1244d8b56e335542dcacfb9e1a65c4e0f98e74f85cbf8d7dc5e359181900360c00190a15050505050505050565b6000818152600760209081526040808320600883528184205460ff16845290915290208054821461112e5760405162461bcd60e51b8152600401610301906125dd565b6004810154156111505760405162461bcd60e51b815260040161030190612583565b60018101546111629062015180612706565b60028201546111719042612755565b10158061119057506207e90081600201544261118d9190612755565b10155b6111dc5760405162461bcd60e51b815260206004820152601f60248201527f54696d6520666f7220766f74696e6720686173206e6f7420656c6170736564006044820152606401610301565b600781015460068201546005830154600092916111f8916126a2565b61120291906126a2565b600d830154600c840154600b85015492935060009261122191906126a2565b61122b91906126a2565b6010840154600f850154600e86015492935060009261124a91906126a2565b61125491906126a2565b600a8501546009860154600887015492935060009261127391906126a2565b61127d91906126a2565b905083611292578361128e816127d7565b9450505b826112a557826112a1816127d7565b9350505b816112b857816112b4816127d7565b9250505b806112cb57806112c7816127d7565b9150505b600885015460009082906112e790670de0b6b3a7640000612706565b6112f191906126e6565b600e870154849061130a90670de0b6b3a7640000612706565b61131491906126e6565b600b880154869061132d90670de0b6b3a7640000612706565b61133791906126e6565b6005890154889061135090670de0b6b3a7640000612706565b61135a91906126e6565b61136491906126a2565b61136e91906126a2565b61137891906126a2565b90506000828760080160010154670de0b6b3a76400006113989190612706565b6113a291906126e6565b600f88015485906113bb90670de0b6b3a7640000612706565b6113c591906126e6565b600c89015487906113de90670de0b6b3a7640000612706565b6113e891906126e6565b60068a0154899061140190670de0b6b3a7640000612706565b61140b91906126e6565b61141591906126a2565b61141f91906126a2565b61142991906126a2565b90506000838860080160020154670de0b6b3a76400006114499190612706565b61145391906126e6565b6010890154869061146c90670de0b6b3a7640000612706565b61147691906126e6565b600d8a0154889061148f90670de0b6b3a7640000612706565b61149991906126e6565b60078b01548a906114b290670de0b6b3a7640000612706565b6114bc91906126e6565b6114c691906126a2565b6114d091906126a2565b6114da91906126a2565b90506114e681836126a2565b83111561150b576011880180546001919061ff001916610100835b0217905550611546565b61151581846126a2565b821115611534576011880180546000919061ff00191661010083611501565b60118801805461ff0019166102001790555b4260048981019190915560008a815260066020526040808220915482549151633afb728b60e21b815263ffffffff909216938201939093529091611642916001600160a01b039091169063ebedca2c9060240160006040518083038186803b1580156115b157600080fd5b505afa1580156115c5573d6000803e3d6000fd5b505050506040513d6000823e601f3d908101601f191682016040526115ed919081019061225d565b60118b01548c90610100900460ff16600281111561161b57634e487b7160e01b600052602160045260246000fd5b60ff16600281111561163d57634e487b7160e01b600052602160045260246000fd5b611b4c565b601189015460008b815260066020526040908190206004015490517f95ddf8430557cf3cebf71f04221c0ddd38f95ad4ef63c0df03b3f22ac7b728599261093c928e9260ff610100840416926001600160a01b03620100009091048116921690612514565b6000818152600760209081526040808320600883528184205460ff1684529091529020805482146116ea5760405162461bcd60e51b8152600401610301906125dd565b60008160040154116117355760405162461bcd60e51b8152602060048201526014602482015273159bdd19481b5d5cdd081899481d185b1b1a595960621b6044820152606401610301565b601181015460ff161561178a5760405162461bcd60e51b815260206004820152601e60248201527f566f74652068617320616c7265616479206265656e20657865637574656400006044820152606401610301565b6001810154815460009081526008602052604090205460ff16146117e95760405162461bcd60e51b81526020600482015260166024820152754d757374206265207468652066696e616c20766f746560501b6044820152606401610301565b6203f4808160040154426117fd9190612755565b101561185e5760405162461bcd60e51b815260206004820152602a60248201527f576169742074696d65206265666f726520657865637574696f6e20686173206e6044820152691bdd08195b185c1cd95960b21b6064820152608401610301565b60118101805460ff1916600190811791829055600084815260066020526040902091610100900460ff1660028111156118a757634e487b7160e01b600052602160045260246000fd5b1415611994576003546011830154600583015460405163a9059cbb60e01b81526001600160a01b036201000090930483166004820152602481019190915291169063a9059cbb90604401602060405180830381600087803b15801561190b57600080fd5b505af115801561191f573d6000803e3d6000fd5b505050506040513d601f19601f82011682018060405250810190611943919061209e565b61198f5760405162461bcd60e51b815260206004820152601c60248201527f5472616e7366657220746f20696e69746961746f72206661696c6564000000006044820152606401610301565b611a71565b600354600482810154600584015460405163a9059cbb60e01b81526001600160a01b039283169381019390935260248301529091169063a9059cbb90604401602060405180830381600087803b1580156119ed57600080fd5b505af1158015611a01573d6000803e3d6000fd5b505050506040513d601f19601f82011682018060405250810190611a25919061209e565b611a715760405162461bcd60e51b815260206004820152601b60248201527f5472616e7366657220746f207265706f72746572206661696c656400000000006044820152606401610301565b6000548154604051633afb728b60e21b815263ffffffff9091166004820152611b01916001600160a01b03169063ebedca2c9060240160006040518083038186803b158015611abf57600080fd5b505afa158015611ad3573d6000803e3d6000fd5b505050506040513d6000823e601f3d908101601f19168201604052611afb919081019061225d565b84611bfa565b60118201546040517f4759bca3818e3be32bf7a299de810bf55136ef05fa1dd9c80802688be4bc90b091611b3f918691610100900460ff1690612500565b60405180910390a1505050565b60a083015160600151604084015160009084846002811115611b7e57634e487b7160e01b600052602160045260246000fd5b604051602001611b909392919061242f565b60408051601f1981840301815291905290506000611bb36004633b9aca00612725565b611bbd90846126ba565b90506000611bd98267ffffffffffffffff168860600151611c85565b9050611bf18760000151858584868c60800151611c98565b50505050505050565b60a0820151608001516040808401519051600091611c1c91859060200161246e565b60408051601f1981840301815291905290506000611c3f6004633b9aca00612725565b611c4990846126ba565b90506000611c658267ffffffffffffffff168760600151611c85565b9050611c7d8660000151858584868b60800151611c98565b505050505050565b6000611c918284612706565b9392505050565b60006040518060400160405280600160ff168152602001611cb889611d27565b90526040516335eacd0360e21b815290915061080d9063d7ab340c90611cec90849086908b908b908b908b9060040161260a565b600060405180830381600087803b158015611d0657600080fd5b505af1158015611d1a573d6000803e3d6000fd5b5050505050505050505050565b60408051600180825281830190925260609160009190816020015b6060815260200190600190039081611d4257505060408051600060208201526001600160e01b031960e087901b16602182015281518082036005018152602590910190915290915081600081518110611dab57634e487b7160e01b600052603260045260246000fd5b602090810291909101015292915050565b828054611dc89061279c565b90600052602060002090601f016020900481019282611dea5760008555611e30565b82601f10611e035782800160ff19823516178555611e30565b82800160010185558215611e30579182015b82811115611e30578235825591602001919060010190611e15565b50611e3c929150611e5f565b5090565b6040518061020001604052806010906020820280368337509192915050565b5b80821115611e3c5760008155600101611e60565b8035610a6b8161283e565b8051610a6b8161283e565b600082601f830112611e9a578081fd5b815167ffffffffffffffff811115611eb457611eb4612828565b611ec7601f8201601f1916602001612671565b818152846020838601011115611edb578283fd5b611eec82602083016020870161276c565b949350505050565b600060408284031215611f05578081fd5b611f0f6040612671565b90508151611f1c81612864565b815260208281015167ffffffffffffffff80821115611f3a57600080fd5b818501915085601f830112611f4e57600080fd5b815181811115611f6057611f60612828565b611f6e848260051b01612671565b818152848101925083850160005b83811015611fa557611f938a888451890101611e8a565b85529386019390860190600101611f7c565b50508085870152505050505092915050565b600060c08284031215611fc8578081fd5b611fd260c0612671565b9050611fdd8261204e565b8152611feb6020830161204e565b6020820152611ffc6040830161204e565b604082015261200d6060830161204e565b606082015261201e6080830161204e565b608082015261202f60a0830161204e565b60a082015292915050565b805163ffffffff81168114610a6b57600080fd5b805167ffffffffffffffff81168114610a6b57600080fd5b600060208284031215612077578081fd5b8135611c918161283e565b600060208284031215612093578081fd5b8151611c918161283e565b6000602082840312156120af578081fd5b8151611c9181612856565b6000602082840312156120cb578081fd5b5035919050565b600080604083850312156120e4578081fd5b8235915060208301356120f68161283e565b809150509250929050565b600080600060608486031215612115578081fd5b83359250602084013561212781612856565b9150604084013561213781612856565b809150509250925092565b600080600080600080600060c0888a03121561215c578485fd5b8735965060208801359550604088013567ffffffffffffffff80821115612181578687fd5b818a0191508a601f830112612194578687fd5b8135818111156121a2578788fd5b8b60208285010111156121b3578788fd5b6020830197508096505050506121cb60608901611e74565b92506121d960808901611e74565b915060a0880135905092959891949750929550565b600080600080600080600060e0888a031215612208578081fd5b505085359760208701359750604087013596606081013596506080810135955060a0810135945060c0013592509050565b6000806040838503121561224b578182fd5b8235915060208301356120f681612864565b60006020828403121561226e578081fd5b815167ffffffffffffffff80821115612285578283fd5b908301906101608286031215612299578283fd5b6122a360c0612671565b6122ac8361203a565b81526122ba60208401611e7f565b60208201526040830151828111156122d0578485fd5b6122dc87828601611e8a565b604083015250606083015160608201526080830151828111156122fd578485fd5b61230987828601611ef4565b60808301525061231c8660a08501611fb7565b60a082015295945050505050565b60006020828403121561233b578081fd5b5051919050565b600080600060608486031215612356578081fd5b8351925060208401519150604084015190509250925092565b6000815180845261238781602086016020860161276c565b601f01601f19169290920160200192915050565b600381106123b957634e487b7160e01b600052602160045260246000fd5b9052565b60006040830160ff835116845260208084015160408287015282815180855260608801915060608160051b89010194508383019250855b8181101561242257605f1989870301835261241086855161236f565b955092840192918401916001016123f4565b5093979650505050505050565b6000845161244181846020890161276c565b601160f81b920191825250600181019290925260f81b6001600160f81b0319166021820152602201919050565b6000835161248081846020880161276c565b600960f91b9201918252506001810191909152602101919050565b858152610280810160208083018760005b60108110156124c9578151835291830191908301906001016124ac565b505050508415156102208301526124e461024083018561239b565b6001600160a01b03929092166102609190910152949350505050565b82815260408101611c91602083018461239b565b84815260808101612528602083018661239b565b6001600160a01b0393841660408301529190921660609092019190915292915050565b60008582528460208301526080604083015261256a608083018561236f565b905060018060a01b038316606083015295945050505050565b6020808252601d908201527f566f74652068617320616c7265616479206265656e2074616c6c696564000000604082015260600190565b6020808252600990820152683737ba1037bbb732b960b91b604082015260600190565b602080825260139082015272159bdd1948191bd95cc81b9bdd08195e1a5cdd606a1b604082015260600190565b600060c0825261261d60c08301896123bd565b828103602084015261262f81896123bd565b905067ffffffffffffffff80881660408501528382036060850152612654828861236f565b925085608085015280851660a08501525050979650505050505050565b604051601f8201601f1916810167ffffffffffffffff8111828210171561269a5761269a612828565b604052919050565b600082198211156126b5576126b5612812565b500190565b600067ffffffffffffffff8083168185168083038211156126dd576126dd612812565b01949350505050565b60008261270157634e487b7160e01b81526012600452602481fd5b500490565b600081600019048311821515161561272057612720612812565b500290565b600067ffffffffffffffff8083168185168183048111821515161561274c5761274c612812565b02949350505050565b60008282101561276757612767612812565b500390565b60005b8381101561278757818101518382015260200161276f565b83811115612796576000848401525b50505050565b600181811c908216806127b057607f821691505b602082108114156127d157634e487b7160e01b600052602260045260246000fd5b50919050565b60006000198214156127eb576127eb612812565b5060010190565b600060ff821660ff81141561280957612809612812565b60010192915050565b634e487b7160e01b600052601160045260246000fd5b634e487b7160e01b600052604160045260246000fd5b6001600160a01b038116811461285357600080fd5b50565b801515811461285357600080fd5b60ff8116811461285357600080fdfea26469706673582212201b0be8dcba29c6f2cc2e20fd7ca863f6a4865626e2205d60afc7d31b5a461dc964736f6c63430008030033",
    "linkReferences": {}
  },
  "methodIdentifiers": {
    "autopayAddrsQueryId()": "d8add0f6",
    "beginParachainDispute(bytes32,uint256,bytes,address,address,uint256)": "1d5d369f",
    "didVote(bytes32,address)": "187a9c07",
    "executeVote(bytes32)": "e01da457",
    "getDisputeInfo(bytes32)": "658977ca",
    "getVoteInfo(bytes32,uint8)": "2479673e",
    "getVoteRounds(bytes32)": "248638e5",
    "init(address)": "19ab453c",
    "owner()": "8da5cb5b",
    "parachainStaking()": "8c6f0e1c",
    "registryAddress()": "ed9aab51",
    "tallyVotes(bytes32)": "80ace426",
    "teamMultisig()": "dbc0c085",
    "token()": "fc0c546a",
    "vote(bytes32,bool,bool)": "7c496ebf",
    "voteParachain(bytes32,uint256,uint256,uint256,uint256,uint256,uint256)": "3db5a7a6"
  },
  "id": 19
}